{
  "contractName": "VideoHash",
  "abi": [
    {
      "constant": false,
      "inputs": [
        {
          "name": "u",
          "type": "string"
        },
        {
          "name": "h",
          "type": "uint256"
        }
      ],
      "name": "setHash",
      "outputs": [],
      "payable": false,
      "stateMutability": "nonpayable",
      "type": "function",
      "signature": "0xf5ab4dfc"
    },
    {
      "constant": true,
      "inputs": [],
      "name": "getHash",
      "outputs": [
        {
          "name": "",
          "type": "string"
        },
        {
          "name": "",
          "type": "uint256"
        }
      ],
      "payable": false,
      "stateMutability": "view",
      "type": "function",
      "signature": "0xd13319c4"
    }
  ],
  "bytecode": "0x608060405234801561001057600080fd5b50610359806100206000396000f3fe60806040526004361061004c576000357c0100000000000000000000000000000000000000000000000000000000900463ffffffff168063d13319c414610051578063f5ab4dfc146100e8575b600080fd5b34801561005d57600080fd5b506100666101ba565b6040518080602001838152602001828103825284818151815260200191508051906020019080838360005b838110156100ac578082015181840152602081019050610091565b50505050905090810190601f1680156100d95780820380516001836020036101000a031916815260200191505b50935050505060405180910390f35b3480156100f457600080fd5b506101b86004803603604081101561010b57600080fd5b810190808035906020019064010000000081111561012857600080fd5b82018360208201111561013a57600080fd5b8035906020019184600183028401116401000000008311171561015c57600080fd5b91908080601f016020809104026020016040519081016040528093929190818152602001838380828437600081840152601f19601f82011690508083019250505050505050919291929080359060200190929190505050610266565b005b6060600080600154818054600181600116156101000203166002900480601f0160208091040260200160405190810160405280929190818152602001828054600181600116156101000203166002900480156102575780601f1061022c57610100808354040283529160200191610257565b820191906000526020600020905b81548152906001019060200180831161023a57829003601f168201915b50505050509150915091509091565b816000908051906020019061027c929190610288565b50806001819055505050565b828054600181600116156101000203166002900490600052602060002090601f016020900481019282601f106102c957805160ff19168380011785556102f7565b828001600101855582156102f7579182015b828111156102f65782518255916020019190600101906102db565b5b5090506103049190610308565b5090565b61032a91905b8082111561032657600081600090555060010161030e565b5090565b9056fea165627a7a72305820939ceac87494d9d5514babc87821934177339c15dd64fc90a0de433323aff5d20029",
  "source": "pragma solidity ^0.5.0;\n\ncontract VideoHash {\n    \n    string url;\n    uint generated_hash;\n\n\n    function setHash(string memory u, uint h) public {\n        url = u;\n        generated_hash = h;\n    }\n\n    function getHash() public view returns (string memory, uint) {\n        return (\n            url, generated_hash\n        );\n    }\n}",
  "sourcePath": "/home/nk/Projects/Claim-It/Backend/Dec/contracts/VideoHash.sol",
  "compiler": {
    "name": "solc",
    "version": "0.5.0+commit.1d4f565a.Emscripten.clang"
  },
  "schemaVersion": "3.0.6",
  "updatedAt": "2019-03-30T21:10:45.869Z",
  "devdoc": {
    "methods": {}
  },
  "userdoc": {
    "methods": {}
  }
}